{
  "contractName": "SI",
  "abi": [
    {
      "constant": true,
      "inputs": [],
      "name": "Rate",
      "outputs": [
        {
          "name": "",
          "type": "uint256"
        }
      ],
      "payable": false,
      "stateMutability": "view",
      "type": "function"
    },
    {
      "constant": true,
      "inputs": [],
      "name": "Interest",
      "outputs": [
        {
          "name": "",
          "type": "uint256"
        }
      ],
      "payable": false,
      "stateMutability": "view",
      "type": "function"
    },
    {
      "constant": true,
      "inputs": [],
      "name": "tenant",
      "outputs": [
        {
          "name": "",
          "type": "address"
        }
      ],
      "payable": false,
      "stateMutability": "view",
      "type": "function"
    },
    {
      "constant": true,
      "inputs": [],
      "name": "Principal",
      "outputs": [
        {
          "name": "",
          "type": "uint256"
        }
      ],
      "payable": false,
      "stateMutability": "view",
      "type": "function"
    },
    {
      "constant": true,
      "inputs": [],
      "name": "Time",
      "outputs": [
        {
          "name": "",
          "type": "uint256"
        }
      ],
      "payable": false,
      "stateMutability": "view",
      "type": "function"
    },
    {
      "inputs": [],
      "payable": false,
      "stateMutability": "nonpayable",
      "type": "constructor"
    },
    {
      "constant": false,
      "inputs": [
        {
          "name": "pr",
          "type": "uint256"
        },
        {
          "name": "ti",
          "type": "uint256"
        },
        {
          "name": "ra",
          "type": "uint256"
        }
      ],
      "name": "calculate",
      "outputs": [
        {
          "name": "success",
          "type": "bool"
        }
      ],
      "payable": false,
      "stateMutability": "nonpayable",
      "type": "function"
    }
  ],
  "bytecode": "0x6060604052341561000f57600080fd5b33600460006101000a81548173ffffffffffffffffffffffffffffffffffffffff021916908373ffffffffffffffffffffffffffffffffffffffff1602179055506000808190555061026c806100666000396000f300606060405260043610610078576000357c0100000000000000000000000000000000000000000000000000000000900463ffffffff1680631b8e94a11461007d5780638b5d0634146100a6578063adf07791146100cf578063af125c8a14610124578063e97cf8831461014d578063f8e157ea1461019a575b600080fd5b341561008857600080fd5b6100906101c3565b6040518082815260200191505060405180910390f35b34156100b157600080fd5b6100b96101c9565b6040518082815260200191505060405180910390f35b34156100da57600080fd5b6100e26101cf565b604051808273ffffffffffffffffffffffffffffffffffffffff1673ffffffffffffffffffffffffffffffffffffffff16815260200191505060405180910390f35b341561012f57600080fd5b6101376101f5565b6040518082815260200191505060405180910390f35b341561015857600080fd5b61018060048080359060200190919080359060200190919080359060200190919050506101fb565b604051808215151515815260200191505060405180910390f35b34156101a557600080fd5b6101ad61023a565b6040518082815260200191505060405180910390f35b60025481565b60035481565b600460009054906101000a900473ffffffffffffffffffffffffffffffffffffffff1681565b60005481565b60008360008190555082600181905550816002819055506064600254600154600054020281151561022857fe5b04600381905550600190509392505050565b600154815600a165627a7a72305820eefeb5fdb587141fc977cee961da85d6c5e38230222fb78e22a0ba17d55ae0380029",
  "source": "pragma solidity ^0.4.4;\n\ncontract SI {\n    uint public Principal;\n    uint public Time;\n    uint public Rate;\n    uint public Interest;\n    \n    address public tenant;\n   \n        function SI() public {\n            tenant=msg.sender;\n            Principal=0;\n        }\n        \n        function calculate(uint pr,uint ti,uint ra) public returns (bool success)\n        {\n\t\n         Principal=pr;\n         Time=ti;\n         Rate=ra;\n        Interest=(Principal*Time*Rate)/100;\n\treturn true;\n        }\n    \n     \n }\n",
  "sourcePath": "/home/shalmali/SONET_projects/SI/contracts/SI.sol",
  "compiler": {
    "name": "solc",
    "version": "0.4.19+commit.c4cbbb05.Emscripten.clang"
  },
  "schemaVersion": "2.0.0",
  "updatedAt": "2018-03-23T01:28:38.730Z"
}